:100000000C9434000C9446000C9446000C9446006A
:100010000C9446000C9446000C9446000C94460048
:100020000C9446000C9446000C9446000C94460038
:100030000C9446000C9448000C9446000C94460026
:100040000C9446000C9446000C9446000C94460018
:100050000C9446000C9446000C9446000C94460008
:100060000C9446000C94460011241FBECFEFD8E03C
:10007000DEBFCDBF21E0A0E0B1E001C01D92A23300
:10008000B207E1F70E94B2000C94C8000C94000083
:100090001F920F920FB60F9211248F939F9380910E
:1000A000000190910101019690930101809300015C
:1000B0009F918F910F900FBE0F901F9018951092E7
:1000C0002D0110922C0188EE93E09093890080938B
:1000D000880016C080912C0190912D01019690937B
:1000E0002D0180932C018FE19EE40197F1F700C070
:1000F0000000E8E8F0E08081918147969183808359
:1001000080918800909189008135944118F384EBA7
:1001100090E090932D0180932C0180E594E19093E1
:1001200089008093880016C080912C0190912D0148
:10013000019790932D0180932C018FE19EE401970C
:10014000F1F700C00000E8E8F0E080819181479776
:10015000918380838091880090918900893E9340AB
:1001600018F70895E0E8F0E08081826A8083E1E892
:10017000F0E080818A6180838AB182608AB98FE3EE
:100180009CE990938700809386000E945F00FDCFDA
:04019000F894FFCF11
:00000001FF
