S01700004763634170706C69636174696F6E312E737265635B
S11300000C94D7000C94E9000C94E9000C94E900DA
S11300100C94E9000C94E9000C94E9000C94CD01D3
S11300200C94E9000C94E9000C94E9000C94E900A8
S11300300C94E9000C9404010C94E9000C94E9007C
S11300400C94E9000C94E9000C94E9000C94E90088
S11300500C94E9000C94E9000C94E9000C94E90078
S11300600C94E9000C94E9000C94E9000C94E90068
S11300700C94E9000C94E9000C94E9000C94E90058
S11300800C94E9000C94E9000C94E9000C94E90048
S11300900C94E9000C94E9000C94E9000C94E90038
S11300A00C94E9000C94E9000C94E9000C94E90028
S11300B00C94E90000407A10F35A00A0724E18091B
S11300C00010A5D4E80000E87648170000E40B54BB
S11300D0020000CA9A3B000000E1F505000080968A
S11300E09800000040420F000000A08601000000BC
S11300F0102700000000E803000000006400000076
S113010000000A00000000000100000000002C763E
S1130110D888DC674F0823DFC1DFAE59E1B1B79659
S1130120E5E3E453C63AE651997696E8E6C28426B6
S1130130EB898C9B62ED407C6FFCEFBC9C9F40F292
S1130140BAA56FA5F490055A2AF75C936B6CF9670E
S11301506DC11BFCE0E40D47FEF520E6B500D0EDD3
S1130160902E0300943577050080841E080000203B
S11301704E0A000000C80C333333330F986E1283D9
S11301801141EF8D2114893BE65516CFFEE6DB18AD
S1130190D1844B381BF77C1D901DA4BBE424203272
S11301A084725E228100C9F124ECA1E53D2711246B
S11301B01FBECFEFD8E0DEBFCDBF21E0A0E0B1E0AD
S11301C001C01D92A233B207E1F70E948C020C9485
S11301D09F050C9400001092C50087E68093C4002C
S11301E088E08093C10086E08093C2000895FC01FA
S11301F007C09091C00095FFFCCF8093C600319654
S113020080818111F6CF08951F920F920FB60F923D
S113021011248F939F93809104019091050101967D
S113022090930501809304019F918F910F900FBECD
S11302300F901F9018950F931F9385B1826085B915
S113024085E38A95F1F7000085B18D7F85B9109219
S113025085001092840081E48093810080E286BB53
S113026081E086BBB59BFECF10928500109284007E
S113027081E08093810090E296BB86BB10920501D9
S113028010920401B59BFECF6091860070918700A7
S113029080E090E060932E0170932F0180933001F1
S11302A09093310120EA33E040E050E00E94E902FB
S11302B030930301209302016091000170910101C8
S11302C06A3071056CF4072E000C880B990B0E94A0
S11302D0AE0204E211E020E041E00E940B031CC0E6
S11302E0643671056CF4072E000C880B990B0E9480
S11302F0AE0204E211E020E042E00E940B030CC0D5
S1130300072E000C880B990B0E94AE0204E211E048
S113031020E043E00E940B03E4E2F1E001900020BE
S1130320E9F731978CE290E0918380836091020138
S1130330709103016A3071056CF4072E000C880B70
S1130340990B0E94AE0206E011E020E041E00E9419
S11303500B030CC0072E000C880B990B0E94AE02F5
S113036006E011E020E042E00E940B0366E071E049
S113037084E291E00E942B03E4E2F1E0019000208A
S1130380E9F731978EE290E09183808384E291E0F3
S11303900E94F7001F910F9108951F920F920FB6BC
S11303A00F9211248F939F9395B180E1892785B98A
S11303B09F918F910F900FBE0F901F9018951092E0
S11303C001011092000188EE93E0909399008093CC
S11303D0980042C080910001909101010196909390
S11303E00101809300010E941B018FE19EE40197AB
S11303F0F1F700C0000023C00E941B01809102019C
S1130400909103019C01255131092A30310530F4C2
S1130410E3EBF0E080818695808311C00B970A9707
S113042038F4E3EBF0E0808186958695808307C0FD
S1130430E3EBF0E0808186958695869580838091B4
S11304400201909103014F97BCF2E8E9F0E080814A
S1130450918147969183808380919800909199002F
S11304608135944108F4B6CF84EB90E09093010178
S11304708093000180E594E1909399008093980023
S113048042C0809100019091010101979093010174
S1130490809300010E941B018FE19EE40197F1F714
S11304A000C0000023C00E941B01809102019091B2
S11304B003019C01255131092A30310530F4E3EB65
S11304C0F0E080818695808311C00B970A9738F4F9
S11304D0E3EBF0E0808186958695808307C0E3EBAB
S11304E0F0E08081869586958695808380910201CF
S11304F0909103014F97BCF2E8E9F0E0808191818B
S11305004797918380838091980090919900893EC8
S1130510934008F0B6CF0895E0E9F0E08081826A64
S11305208083E1E9F0E080818A6180838AB181601F
S11305308AB98FE39CE9909397008093960082E0B8
S113054084B90E94EB00789481E080936F0010924C
S113055080000E94DF01FDCFE89409C097FB3EF4C0
S113056090958095709561957F4F8F4F9F4F9923FC
S1130570A9F0F92F96E9BB279395F695879577957A
S11305806795B795F111F8CFFAF4BB0F11F460FF3A
S11305901BC06F5F7F4F8F4F9F4F16C0882311F092
S11305A096E911C0772321F09EE8872F762F05C0A6
S11305B0662371F096E8862F70E060E02AF09A9541
S11305C0660F771F881FDAF7880F9695879597F936
S11305D00895A1E21A2EAA1BBB1BFD010DC0AA1F80
S11305E0BB1FEE1FFF1FA217B307E407F50720F098
S11305F0A21BB30BE40BF50B661F771F881F991F13
S11306001A9469F760957095809590959B01AC015B
S1130610BD01CF010895EF920F931F93CF93DF9302
S1130620E80147FD02C034E001C034E1042E000CAF
S1130630550B57FF03C0519541955109E32E022FE5
S1130640242FAE010E943603CE01DF91CF911F917A
S11306500F91EF900895FB01DC010D900020E9F764
S1130660119701900D920020E1F70895A9E0B0E000
S1130670ECE3F3E00C946E056A01122FB02E2BE329
S1130680201720F0FF24F394F00E02C02CE3F22E86
S11306900F2D27E0AE014F5F5F4F0E949004BC0115
S11306A04981842F8970813031F0E1FC06C0E0FE7D
S11306B006C090E205C09DE203C09BE201C090E049
S11306C05E2D507143FF3CC0911102C083E001C014
S11306D084E0811718F4212F281B01C020E0511158
S11306E00BC0F601822F30E2882319F03193815038
S11306F0FBCFC20ED11C20E0992329F0D6019C9394
S1130700F60131966F01C6010396E2FE0AC03EE48B
S1130710D6013C9341E411964C93119712963C9365
S113072006C03EE6F601308341E641833283FC0194
S1130730322F40E2332309F442C041933150FACFBF
S113074042FF44C0911102C083E001C084E08117DC
S113075018F4212F281B01C020E051110BC0F60111
S1130760822F30E2882319F031938150FBCFC20EDF
S1130770D11C20E0992329F0D6019C93F6013196EF
S11307806F01C6010396E2FE0BC039E4D6013C9327
S11307903EE411963C93119736E412963C9307C0BD
S11307A039E6F60130833EE6318336E63283FC01D6
S11307B0322F40E2332319F041933150FBCFFC0137
S11307C0E20FF11D10828EEF9FEFA6C021E030E012
S11307D0911102C020E030E0161617061CF4FB014C
S11307E0319602C0E1E0F0E02E0F3F1FBB2021F064
S11307F0EB2DF0E0319602C0E0E0F0E02E0F3F1F59
S1130800E12FF0E02E173F071CF4121B212F01C02B
S113081020E08E2D887159F4F601822F30E288236E
S113082019F031938150FBCFC20ED11C20E09923E3
S113083029F0D6019C93F60131966F0151110BC03A
S1130840F601822F90E3882319F091938150FBCF16
S1130850C20ED11C20E00F2D060F9A81342F307167
S113086044FF03C0913309F40150101624F40930F5
S113087018F008E001C001E0AB0177FF02C040E0DE
S113088050E0FB01E41BF50BA1E0B0E0AC0FBD1F91
S1130890EA0FFB1F8EE2A82E4B01801A91080B2D44
S11308A010E01195019511094F3FBFEF5B0721F44B
S11308B0D601AC9211966D01641775072CF084165D
S11308C0950614F4818101C080E3415051093196A9
S11308D0D60111967D014017510724F0D6018C935F
S11308E06701E2CF6417750739F4963320F4953322
S11308F019F4311101C081E3F6018083F701822FDD
S113090090E2882319F091938150FBCFF701E20F15
S1130910F11D108280E090E02996ECE00C948A05A9
S1130920283008F027E03327DA01990F311D87FDBD
S1130930916000966105710539F432602E5F3D9334
S113094030E32A95E1F708959F3F30F08038710530
S1130950610509F03C5F3C5F3D93913008F080688D
S1130960911DDF93CF931F930F93FF92EF92192F53
S1130970987F9695E92F96959695E90FFF27E25F64
S1130980FE4F99273327EE24FF24A701E7010590A2
S11309900894079428F4360FE71EF81E491F511DCA
S11309A0660F771F881F991F0694A1F70590079477
S11309B028F4E70EF81E491F561FC11D770F881F24
S11309C0991F661F0694A1F70590079428F4F80E62
S11309D0491F561FC71FD11D880F991F661F771FF8
S11309E00694A1F70590079420F4490F561FC71FDA
S11309F0D81F990F661F771F881F0694A9F7849143
S1130A001095177041F0D695C79557954795F7946B
S1130A10E7941A95C1F7E4EBF0E06894159015910A
S1130A2035916591959105907FE27395E118F10AEE
S1130A30430B560BC90BD009C0F7E10CF11E431F41
S1130A40561FC91FD01D7EF4703311F48A95E6CF6A
S1130A50E894015030F0080F0AF40027021708F454
S1130A60202F2395022F7A3328F079E37D932A955A
S1130A70E9F710C07D932A9589F6069497956795B2
S1130A80379517951794E118F10A430B560BC90BC8
S1130A90D00998F023957E9173957A3308F070E32A
S1130AA07C932013B8F77E9170617D9330F0839529
S1130AB071E37D9370E32A95E1F71124EF90FF90A1
S1130AC00F911F91CF91DF91992787FD90950895FC
S1130AD02F923F924F925F926F927F928F929F924A
S1130AE0AF92BF92CF92DF92EF92FF920F931F9338
S1130AF0CF93DF93CDB7DEB7CA1BDB0B0FB6F894E9
S1130B00DEBF0FBECDBF09942A88398848885F8428
S1130B106E847D848C849B84AA84B984C884DF8099
S1130B20EE80FD800C811B81AA81B981CE0FD11D7D
S1130B300FB6F894DEBF0FBECDBFED010895F89453
S1050B40FFCFE1
S9030000FC
